:100000000C9462000C948A000C948A000C948A0070
:100010000C948A000C948A000C948A000C948A0038
:100020000C948A000C948A000C948A000C948A0028
:100030000C948A000C948A000C948A000C948A0018
:100040000C94A9020C948A000C9419030C94F302EA
:100050000C948A000C948A000C948A000C948A00F8
:100060000C948A000C948A000000000024002700F1
:100070002A0000000000250028002B0000000000DE
:1000800023002600290004040404040404040202DA
:100090000202020203030303030301020408102007
:1000A0004080010204081020010204081020000012
:1000B0000008000201000003040700000000000027
:1000C00000004B0311241FBECFEFD8E0DEBFCDBF31
:1000D00011E0A0E0B1E0E4E5FAE002C005900D9285
:1000E000A631B107D9F721E0A6E1B1E001C01D9228
:1000F000A23DB207E1F710E0C2E6D0E004C02197CC
:10010000FE010E942205C136D107C9F70E948E0365
:100110000C9428050C940000833081F028F4813081
:1001200099F08230A9F008958730A9F08830C9F09D
:100130008430B1F4809180008F7D03C08091800075
:100140008F7780938000089584B58F7784BD08955C
:1001500084B58F7DFBCF8091B0008F778093B00006
:1001600008958091B0008F7DF9CFCF93DF93282F32
:1001700030E0F901E255FF4F8491F901E656FF4F57
:10018000D491F901EA57FF4FC491CC23A1F081111A
:100190000E948C00EC2FF0E0EE0FFF1FE458FF4FA1
:1001A000A591B491EC91ED2381E090E009F480E019
:1001B000DF91CF91089580E090E0FACF1F93CF9325
:1001C000DF93282F30E0F901E255FF4F8491F901C8
:1001D000E656FF4FD491F901EA57FF4FC491CC2363
:1001E000A9F0162F81110E948C00EC2FF0E0EE0F89
:1001F000FF1FEE58FF4FA591B4918FB7F894EC9183
:10020000111108C0D095DE23DC938FBFDF91CF9111
:100210001F910895DE2BF8CFCF93DF9390E0FC0180
:10022000E656FF4F24918A579F4FFC018491882303
:10023000D1F090E0880F991FFC01E859FF4FA5917C
:10024000B491FC01EE58FF4FC591D491623071F426
:100250009FB7F8943C91822F809583238C93E881FB
:100260002E2B28839FBFDF91CF9108958FB7F894ED
:10027000EC912E2B2C938FBFF6CF3FB7F894809143
:100280001B0190911C01A0911D01B0911E0126B58A
:10029000A89B05C02F3F19F00196A11DB11D3FBFBE
:1002A000BA2FA92F982F8827BC01CD01620F711D8D
:1002B000811D911D42E0660F771F881F991F4A9587
:1002C000D1F708958F929F92AF92BF92CF92DF9213
:1002D000EF92FF924B015C010E943D016B017C019A
:1002E0000E943D016C197D098E099F09683E73408B
:1002F00081059105A8F321E0821A9108A108B108AF
:1003000088EEC80E83E0D81EE11CF11C8114910414
:10031000A104B10429F7FF90EF90DF90CF90BF9038
:10032000AF909F908F900895AF92BF92CF92DF923F
:10033000EF92FF920F931F93CF93DF936C017B019A
:100340008B01040F151FEB015E01AE18BF08C0172B
:10035000D10759F06991D601ED91FC910190F0819E
:10036000E02DC6010995892B79F7C501DF91CF9161
:100370001F910F91FF90EF90DF90CF90BF90AF90C3
:100380000895FC01538D448D252F30E0842F90E09B
:10039000821B930B541710F0CF9608950197089580
:1003A000FC01918D828D981761F0A28DAE0FBF2F49
:1003B000B11D5D968C91928D9F5F9F73928F90E09F
:1003C00008958FEF9FEF0895FC01918D828D98170E
:1003D00031F0828DE80FF11D858D90E008958FEF4B
:1003E0009FEF0895FC01918D228D892F90E0805C14
:1003F0009F4F821B91098F73992708958FE191E098
:100400000E94F20121E0892B09F420E0822F089557
:1004100080E090E0892B29F00E94FE0181110C946C
:1004200000000895FC01A48DA80FB92FB11DA35A97
:10043000BF4F2C91848D90E001968F739927848F04
:10044000A689B7892C93A089B1898C918370806427
:100450008C93938D848D981306C00288F389E02DC8
:1004600080818F7D80830895EF92FF920F931F9379
:10047000CF93DF93EC0181E0888F9B8D8C8D981357
:100480001AC0E889F989808185FF15C09FB7F89463
:10049000EE89FF896083E889F989808183708064AF
:1004A00080839FBF81E090E0DF91CF911F910F91FA
:1004B000FF90EF900895F62E0B8D10E00F5F1F4F09
:1004C0000F731127E02E8C8D8E110CC00FB607FC18
:1004D000FACFE889F989808185FFF5CFCE010E94A6
:1004E0001202F1CFEB8DEC0FFD2FF11DE35AFF4F00
:1004F000F0829FB7F8940B8FEA89FB898081806234
:10050000CFCFCF93DF93EC01888D8823B9F0AA89F0
:10051000BB89E889F9898C9185FD03C0808186FDBE
:100520000DC00FB607FCF7CF8C9185FFF2CF80810D
:1005300085FFEDCFCE010E941202E9CFDF91CF916E
:10054000089542E050E062E171E08FE191E00C94A7
:1005500094011F920F920FB60F9211242F933F9385
:100560008F939F93AF93BF93809117019091180140
:10057000A0911901B0911A013091160123E0230FC7
:100580002D3758F50196A11DB11D209316018093BA
:10059000170190931801A0931901B0931A0180914B
:1005A0001B0190911C01A0911D01B0911E010196AB
:1005B000A11DB11D80931B0190931C01A0931D01EF
:1005C000B0931E01BF91AF919F918F913F912F9159
:1005D0000F900FBE0F901F90189526E8230F0296DC
:1005E000A11DB11DD2CF1F920F920FB60F921124F1
:1005F0002F933F934F935F936F937F938F939F932B
:10060000AF93BF93EF93FF938FE191E00E941202AB
:10061000FF91EF91BF91AF919F918F917F916F91DA
:100620005F914F913F912F910F900FBE0F901F90B0
:1006300018951F920F920FB60F9211242F938F933C
:100640009F93EF93FF93E0912F01F0913001808110
:10065000E0913501F091360182FD1BC090818091BF
:1006600038018F5F8F7320913901821741F0E0913B
:100670003801F0E0E15EFE4F958F80933801FF91E5
:10068000EF919F918F912F910F900FBE0F901F9020
:1006900018958081F4CFEFE1F1E01382128288EEA9
:1006A00093E0A0E0B0E084839583A683B78384E0E1
:1006B00091E09183808385EC90E09587848784EC3A
:1006C00090E09787868780EC90E0918B808B81EC1F
:1006D00090E0938B828B82EC90E0958B848B86EC00
:1006E00090E0978B868B118E128E138E148EECEB0E
:1006F000F1E08FEF9FEF9183808312821382E0EC11
:10070000F1E097838683108611869387828714860B
:10071000158697878687108A118A0895CF93DF936D
:10072000CDB7DEB7A1970FB6F894DEBF0FBECDBF31
:10073000789484B5826084BD84B5816084BD85B5BC
:10074000826085BD85B5816085BD80916E008160C8
:1007500080936E001092810080918100826080936E
:100760008100809181008160809381008091800070
:100770008160809380008091B10084608093B1009B
:100780008091B00081608093B00080917A00846095
:1007900080937A0080917A00826080937A008091C1
:1007A0007A00816080937A0080917A0080688093DB
:1007B0007A001092C10087E090E09093C10180938D
:1007C000C00184E090E09093C3018093C20161E096
:1007D00087E00E940C0160E08091C0010E94DE0071
:1007E00061E08091C2010E940C0161E08091C20130
:1007F0000E94DE0081E090E09093C5018093C401E7
:1008000062E088E00E940C0188E090E09093C701CC
:100810008093C60162E085E00E940C0162E089E0FD
:100820000E940C0161E08DE00E940C01E0912F011B
:10083000F091300182E08083E0912B01F0912C0156
:100840001082E0912D01F0912E0180E180831092C1
:100850003701E0913301F091340186E08083E0912B
:100860003101F0913201808180618083E09131011A
:10087000F0913201808188608083E0913101F091B4
:100880003201808180688083E0913101F0913201F2
:1008900080818F7D808330E0E32E30E0F32E61E0B5
:1008A0008091C0010E94DE0060E08091C0010E9442
:1008B000DE00D12CC12C00EC11E0B12CA12C8091D8
:1008C000C4019091C501A816B906CCF4C114D10495
:1008D00019F4F80180858187F801868197811816BF
:1008E00019063CF40E94B500F8019085990F892BF8
:1008F0008087FFEFAF1ABF0A0C5F1F4FE0CF60E0A9
:100900008091C2010E94DE0061E08091C2010E94DC
:10091000DE008FEFC81AD80AE8E0CE16D10459F6E7
:100920008091C6019091C701A091C801B091C90101
:100930008093BC019093BD01A093BE01B093BF0111
:100940008091BE019091BF01891709F442C090E0E7
:10095000B0E0A0E019A2FE01B196AC01BD014F705C
:1009600055276627772724E0B695A795979587950D
:100970002A95D1F74A300CF057C0405D429300975A
:10098000A105B10551F7309769F0DF010D90002006
:10099000E9F71197AD014E1B5F0BBF018FE191E0AD
:1009A0000E9494010E94A1028091BC019091BD011E
:1009B00097FD0FC08091BE01882359F084FD09C0C6
:1009C00085FD07C062E58FE191E00E9434020E943C
:1009D000A10285E00E94B500892BA1F461E08DE0C1
:1009E0000E94DE0085E00E94B500892BF9F089E0C5
:1009F0000E94B500892BB1F30E94A10260E08DE056
:100A00000E94DE006AE070E080E090E00E946201F7
:100A1000E114F10409F443CF0E94FE01882309F494
:100A20003ECF0E9400003BCF495CA8CF61E28FE13E
:100A300091E00E94340264E670E080E090E00E9461
:100A40006201D0CFEE0FFF1F0590F491E02D0994C5
:040A5000F894FFCF48
:100A54000000000034029401C1018102F201D001BE
:060A6400E4010D0A000090
:00000001FF
