:020000020000FC
:0400000009C0189586
:100010002FEF18950FE50DBF099A00E90FBB03E01C
:1000200005BF08ED0CBF002706BF01E00ABF03E0D3
:1000300005BB01E003BB01E004BB7894099830C024
:10004000A89505E401BF88950000002701BF089529
:10005000F89408E0039BFECF009901C001C0116035
:100060000399FECF0A9511F0110FF4CFA09A78945E
:100070000895002703BB7894099AE2DF09982227A4
:10008000A89507E401BF2F3FB9F3029BFCCFF8947A
:10009000002701BF01E003BB01E004BB7894089591
:1000A00033278895D5DF1F3CD9F733953330C9F70F
:0600B000F894DFDFF5CF3C
:00000001FF
