:020000020000FC
:0600000011C0189506C0B6
:1000100005C00FB7039B23950FBF18950FB73395F6
:100020000FBF18950BB703FF08C0A895077F0BBF3C
:1000300008ED0CBF002701BF02C000FF26C000274B
:100040000BBF00E00EBF0FE50DBF099A00E90FBB23
:1000500003E005BF08ED0CBF002706BF34E009B779
:1000600014E1010F09BF02E30A95F1F73A95B9F7D8
:1000700001E00ABF08E000BB03E005BB01E003BBF1
:1000800001E004BB789409983FC0FFCFF89408E0E2
:10009000039BFECF009901C001C011600399FECF00
:1000A0000A9511F0110FF4CFA09A78940895F8945E
:1000B000002703BB02BB01BF099A1CD00998222765
:1000C0003327A89506E401BF01E002BB01E001BBB4
:1000D0007894889500003A3051F3283009F0F9CF30
:1000E000F894002701BF02BB01E003BB01E004BBA1
:1000F00078940895A89507E401BF78948895000046
:10010000F894002701BF089533278895BFDF1F3C6F
:0C011000D9F733953530C9F7CADFF6CFB8
:00000001FF
